:10090900C374FF9FFF74FF9E4389108F8BF58DD2AF
:090919008E308FFDC28EC28F22C8
:10092200AD07AC06ED1DAE0470011C4E60097FE8F8
:080932007E0312090980ED2289
:1008E600438910E4F58BF58DD28E30A103308FFA53
:1008F600C28EC28FAF8DEFFEAD8B7C00E42DFFEC78
:030906003EFE2290
:1008B400E4FDFCFBFAD2A07F0AFE120909C2A030B3
:1008C400A1FD1208E6AC06AD07D3ED9464EC9400E8
:1008D400400B7C007D3A12085FAA06AB07AE02AF5C
:0108E4000310
:0108E50022F0
:10080000E4F508F50912093A12095B7FD07E071258
:10081000092212095B7F647E001209221208B48E3D
:10082000088F09C3E5099432E5089400400BD3E52D
:1008300009945EE508940140D91209697FF47E01AC
:100840001209221209771209627FE87E0312092237
:0F0850001209851209697FE87E0312092280B31D
:10093A0012095B12096212096912097712097E12F9
:05094A0009700209859F
:07095B00C291D290D2942258
:07096200D291C290D2942251
:07096900C291C290D294225A
:07097000C291C290C2942263
:07097700D293C292D2952237
:07097E00C293D292D2952230
:07098500C293C292C2952249
:0300000002094FA3
:0C094F00787FE4F6D8FD758109020800ED
:10085F00BC000BBE0029EF8DF084FFADF022E4CC7D
:10086F00F875F008EF2FFFEE33FEEC33FCEE9DEC46
:10087F00984005FCEE9DFE0FD5F0E9E4CEFD22ED8C
:10088F00F8F5F0EE8420D21CFEADF075F008EF2FD6
:10089F00FFED33FD4007985006D5F0F222C398FDC7
:0508AF000FD5F0EA2264
:00000001FF
